:100000000C9434000C9446000C9446000C946E0042
:100010000C9446000C9446000C9446000C94460048
:100020000C9446000C9446000C9446000C94460038
:100030000C9446000C9446000C9446000C94460028
:100040000C9446000C9446000C9446000C94460018
:100050000C9446000C9446000C9446000C94460008
:100060000C9446000C94460011241FBECFEFD8E03C
:10007000DEBFCDBF21E0A0E0B1E001C01D92A13004
:10008000B207E1F70E9448000C9482000C94000033
:1000900080E284B9E8E6F0E080818160808388E1D5
:1000A00080936B001092000178948091000181117F
:1000B000FECF2D9A2FEF8FE097E2215080409040A5
:1000C000E1F700C000002D982FEF83EC99E021505C
:1000D00080409040E1F700C00000E7CF1F920F92F0
:1000E0000FB60F9211248F931C9B03C081E0809365
:1000F00000011B99109200018F910F900FBE0F907D
:080100001F901895F894FFCF41
:00000001FF
