S0220000454A3035625F426C696E6B5F44656C61795F4C656F6E6172646F2E737265637C
S11300000C9456000C9460000C9460000C946000F6
S11300100C9460000C9460000C9460000C946000DC
S11300200C9460000C9460000C9460000C946000CC
S11300300C9460000C9460000C9460000C946000BC
S11300400C9460000C9460000C9460000C946000AC
S11300500C9460000C9460000C9460000C9460009C
S11300600C9460000C9460000C9460000C9460008C
S11300700C9460000C9460000C9460000C9460007C
S11300800C9460000C9460000C9460000C9460006C
S11300900C9460000C9460000C9460000C9460005C
S11300A00C9460000C9460000C94600011241FBE3A
S11300B0CFEFDAE0DEBFCDBF0E9462000C94710086
S11300C00C94000080E887B988B1805888B92FEF74
S11300D081EE94E0215080409040E1F700C00000A0
S10900E0F3CFF894FFCFFA
S9030000FC
