:100000000C9434000C9475000C9482000C944600FF
:100010000C9446000C9446000C9446000C94460048
:100020000C9446000C9446000C9446000C94460038
:100030000C9446000C9446000C9446000C94460028
:100040000C9446000C9446000C9446000C94460018
:100050000C9446000C9446000C9446000C94460008
:100060000C9446000C94460011241FBECFEFD8E03C
:10007000DEBFCDBF21E0A0E0B1E001C01D92A13004
:10008000B207E1F70E9448000C9492000C94000023
:1000900080E284B983E08DBB8FE08093690078941F
:1000A00080910001882361F08130E1F72FEF81EE2C
:1000B00094E0215080409040E1F700C00000F0CF74
:1000C0002D9A2FEF8FE097E2215080409040E1F78A
:1000D00000C000002D982FEF83EC99E02150804064
:1000E0009040E1F700C00000DBCF1F920F920FB6E7
:1000F0000F92112410920001E0980F900FBE0F9004
:100100001F9018951F920F920FB60F9211248F9384
:1001100081E080930001E1988F910F900FBE0F90C6
:080120001F901895F894FFCF21
:00000001FF
