S0180000456A30365F426C696E6B5F44656C61792E737265635A
S11300000C9434000C943E000C943E000C943E007E
S11300100C943E000C943E000C943E000C943E0064
S11300200C943E000C943E000C943E000C943E0054
S11300300C943E000C943E000C943E000C943E0044
S11300400C943E000C943E000C943E000C943E0034
S11300500C943E000C943E000C943E000C943E0024
S11300600C943E000C943E0011241FBECFEFD8E048
S1130070DEBFCDBF0E9440000C9450000C940000E1
S113008080E284B990E285B1892785B92FEF31EEFA
S113009084E0215030408040E1F700C00000F3CFFD
S10700A0F894FFCFFE
S9030000FC
